{
  "_format": "hh-sol-artifact-1",
  "contractName": "Land",
  "sourceName": "contracts/Land.sol",
  "abi": [
    {
      "inputs": [],
      "stateMutability": "nonpayable",
      "type": "constructor"
    },
    {
      "inputs": [
        {
          "internalType": "address",
          "name": "sender",
          "type": "address"
        },
        {
          "internalType": "uint256",
          "name": "tokenId",
          "type": "uint256"
        },
        {
          "internalType": "address",
          "name": "owner",
          "type": "address"
        }
      ],
      "name": "ERC721IncorrectOwner",
      "type": "error"
    },
    {
      "inputs": [
        {
          "internalType": "address",
          "name": "operator",
          "type": "address"
        },
        {
          "internalType": "uint256",
          "name": "tokenId",
          "type": "uint256"
        }
      ],
      "name": "ERC721InsufficientApproval",
      "type": "error"
    },
    {
      "inputs": [
        {
          "internalType": "address",
          "name": "approver",
          "type": "address"
        }
      ],
      "name": "ERC721InvalidApprover",
      "type": "error"
    },
    {
      "inputs": [
        {
          "internalType": "address",
          "name": "operator",
          "type": "address"
        }
      ],
      "name": "ERC721InvalidOperator",
      "type": "error"
    },
    {
      "inputs": [
        {
          "internalType": "address",
          "name": "owner",
          "type": "address"
        }
      ],
      "name": "ERC721InvalidOwner",
      "type": "error"
    },
    {
      "inputs": [
        {
          "internalType": "address",
          "name": "receiver",
          "type": "address"
        }
      ],
      "name": "ERC721InvalidReceiver",
      "type": "error"
    },
    {
      "inputs": [
        {
          "internalType": "address",
          "name": "sender",
          "type": "address"
        }
      ],
      "name": "ERC721InvalidSender",
      "type": "error"
    },
    {
      "inputs": [
        {
          "internalType": "uint256",
          "name": "tokenId",
          "type": "uint256"
        }
      ],
      "name": "ERC721NonexistentToken",
      "type": "error"
    },
    {
      "inputs": [
        {
          "internalType": "address",
          "name": "owner",
          "type": "address"
        }
      ],
      "name": "OwnableInvalidOwner",
      "type": "error"
    },
    {
      "inputs": [
        {
          "internalType": "address",
          "name": "account",
          "type": "address"
        }
      ],
      "name": "OwnableUnauthorizedAccount",
      "type": "error"
    },
    {
      "anonymous": false,
      "inputs": [
        {
          "indexed": true,
          "internalType": "address",
          "name": "owner",
          "type": "address"
        },
        {
          "indexed": true,
          "internalType": "address",
          "name": "approved",
          "type": "address"
        },
        {
          "indexed": true,
          "internalType": "uint256",
          "name": "tokenId",
          "type": "uint256"
        }
      ],
      "name": "Approval",
      "type": "event"
    },
    {
      "anonymous": false,
      "inputs": [
        {
          "indexed": true,
          "internalType": "address",
          "name": "owner",
          "type": "address"
        },
        {
          "indexed": true,
          "internalType": "address",
          "name": "operator",
          "type": "address"
        },
        {
          "indexed": false,
          "internalType": "bool",
          "name": "approved",
          "type": "bool"
        }
      ],
      "name": "ApprovalForAll",
      "type": "event"
    },
    {
      "anonymous": false,
      "inputs": [
        {
          "indexed": false,
          "internalType": "uint256",
          "name": "_fromTokenId",
          "type": "uint256"
        },
        {
          "indexed": false,
          "internalType": "uint256",
          "name": "_toTokenId",
          "type": "uint256"
        }
      ],
      "name": "BatchMetadataUpdate",
      "type": "event"
    },
    {
      "anonymous": false,
      "inputs": [
        {
          "indexed": false,
          "internalType": "uint256",
          "name": "_tokenId",
          "type": "uint256"
        }
      ],
      "name": "MetadataUpdate",
      "type": "event"
    },
    {
      "anonymous": false,
      "inputs": [
        {
          "indexed": true,
          "internalType": "address",
          "name": "previousOwner",
          "type": "address"
        },
        {
          "indexed": true,
          "internalType": "address",
          "name": "newOwner",
          "type": "address"
        }
      ],
      "name": "OwnershipTransferred",
      "type": "event"
    },
    {
      "anonymous": false,
      "inputs": [
        {
          "indexed": true,
          "internalType": "address",
          "name": "from",
          "type": "address"
        },
        {
          "indexed": true,
          "internalType": "address",
          "name": "to",
          "type": "address"
        },
        {
          "indexed": true,
          "internalType": "uint256",
          "name": "tokenId",
          "type": "uint256"
        }
      ],
      "name": "Transfer",
      "type": "event"
    },
    {
      "inputs": [
        {
          "internalType": "address",
          "name": "",
          "type": "address"
        }
      ],
      "name": "GovtAuthorityMapping",
      "outputs": [
        {
          "internalType": "uint256",
          "name": "id",
          "type": "uint256"
        },
        {
          "internalType": "address",
          "name": "_addr",
          "type": "address"
        },
        {
          "internalType": "string",
          "name": "name",
          "type": "string"
        },
        {
          "internalType": "uint256",
          "name": "age",
          "type": "uint256"
        },
        {
          "internalType": "string",
          "name": "designation",
          "type": "string"
        },
        {
          "internalType": "string",
          "name": "city",
          "type": "string"
        }
      ],
      "stateMutability": "view",
      "type": "function"
    },
    {
      "inputs": [
        {
          "internalType": "uint256",
          "name": "",
          "type": "uint256"
        }
      ],
      "name": "LandRequestMapping",
      "outputs": [
        {
          "internalType": "uint256",
          "name": "reqId",
          "type": "uint256"
        },
        {
          "internalType": "address payable",
          "name": "sellerId",
          "type": "address"
        },
        {
          "internalType": "address payable",
          "name": "buyerId",
          "type": "address"
        },
        {
          "internalType": "uint256",
          "name": "landId",
          "type": "uint256"
        },
        {
          "internalType": "enum Land.reqStatus",
          "name": "requestStatus",
          "type": "uint8"
        },
        {
          "internalType": "bool",
          "name": "isPaymentDone",
          "type": "bool"
        }
      ],
      "stateMutability": "view",
      "type": "function"
    },
    {
      "inputs": [],
      "name": "ReturnAllGovtAuthorityList",
      "outputs": [
        {
          "internalType": "address[]",
          "name": "",
          "type": "address[]"
        }
      ],
      "stateMutability": "view",
      "type": "function"
    },
    {
      "inputs": [],
      "name": "ReturnAllLandList",
      "outputs": [
        {
          "internalType": "uint256[]",
          "name": "",
          "type": "uint256[]"
        }
      ],
      "stateMutability": "view",
      "type": "function"
    },
    {
      "inputs": [],
      "name": "ReturnAllUserList",
      "outputs": [
        {
          "internalType": "address[]",
          "name": "",
          "type": "address[]"
        }
      ],
      "stateMutability": "view",
      "type": "function"
    },
    {
      "inputs": [
        {
          "internalType": "address",
          "name": "",
          "type": "address"
        }
      ],
      "name": "UserMapping",
      "outputs": [
        {
          "internalType": "address",
          "name": "id",
          "type": "address"
        },
        {
          "internalType": "string",
          "name": "name",
          "type": "string"
        },
        {
          "internalType": "uint256",
          "name": "age",
          "type": "uint256"
        },
        {
          "internalType": "string",
          "name": "city",
          "type": "string"
        },
        {
          "internalType": "string",
          "name": "aadharNumber",
          "type": "string"
        },
        {
          "internalType": "string",
          "name": "panNumber",
          "type": "string"
        },
        {
          "internalType": "string",
          "name": "email",
          "type": "string"
        },
        {
          "internalType": "bool",
          "name": "isUserVerified",
          "type": "bool"
        }
      ],
      "stateMutability": "view",
      "type": "function"
    },
    {
      "inputs": [
        {
          "internalType": "uint256",
          "name": "_requestId",
          "type": "uint256"
        }
      ],
      "name": "acceptRequest",
      "outputs": [],
      "stateMutability": "nonpayable",
      "type": "function"
    },
    {
      "inputs": [
        {
          "internalType": "address",
          "name": "_addr",
          "type": "address"
        },
        {
          "internalType": "string",
          "name": "_name",
          "type": "string"
        },
        {
          "internalType": "uint256",
          "name": "_age",
          "type": "uint256"
        },
        {
          "internalType": "string",
          "name": "_designation",
          "type": "string"
        },
        {
          "internalType": "string",
          "name": "_city",
          "type": "string"
        }
      ],
      "name": "addGovtAuthority",
      "outputs": [
        {
          "internalType": "bool",
          "name": "",
          "type": "bool"
        }
      ],
      "stateMutability": "nonpayable",
      "type": "function"
    },
    {
      "inputs": [
        {
          "internalType": "uint256",
          "name": "_area",
          "type": "uint256"
        },
        {
          "internalType": "string",
          "name": "_address",
          "type": "string"
        },
        {
          "internalType": "uint256",
          "name": "_landPrice",
          "type": "uint256"
        },
        {
          "internalType": "uint256",
          "name": "_propertyPID",
          "type": "uint256"
        },
        {
          "internalType": "string",
          "name": "_document",
          "type": "string"
        }
      ],
      "name": "addLand",
      "outputs": [],
      "stateMutability": "nonpayable",
      "type": "function"
    },
    {
      "inputs": [
        {
          "internalType": "address",
          "name": "to",
          "type": "address"
        },
        {
          "internalType": "uint256",
          "name": "tokenId",
          "type": "uint256"
        }
      ],
      "name": "approve",
      "outputs": [],
      "stateMutability": "nonpayable",
      "type": "function"
    },
    {
      "inputs": [
        {
          "internalType": "address",
          "name": "owner",
          "type": "address"
        }
      ],
      "name": "balanceOf",
      "outputs": [
        {
          "internalType": "uint256",
          "name": "",
          "type": "uint256"
        }
      ],
      "stateMutability": "view",
      "type": "function"
    },
    {
      "inputs": [
        {
          "internalType": "address",
          "name": "_addr",
          "type": "address"
        }
      ],
      "name": "changeContractOwner",
      "outputs": [],
      "stateMutability": "nonpayable",
      "type": "function"
    },
    {
      "inputs": [],
      "name": "contractOwner",
      "outputs": [
        {
          "internalType": "address",
          "name": "",
          "type": "address"
        }
      ],
      "stateMutability": "view",
      "type": "function"
    },
    {
      "inputs": [],
      "name": "documentId",
      "outputs": [
        {
          "internalType": "uint256",
          "name": "",
          "type": "uint256"
        }
      ],
      "stateMutability": "view",
      "type": "function"
    },
    {
      "inputs": [
        {
          "internalType": "uint256",
          "name": "tokenId",
          "type": "uint256"
        }
      ],
      "name": "getApproved",
      "outputs": [
        {
          "internalType": "address",
          "name": "",
          "type": "address"
        }
      ],
      "stateMutability": "view",
      "type": "function"
    },
    {
      "inputs": [
        {
          "internalType": "address",
          "name": "owner",
          "type": "address"
        },
        {
          "internalType": "address",
          "name": "operator",
          "type": "address"
        }
      ],
      "name": "isApprovedForAll",
      "outputs": [
        {
          "internalType": "bool",
          "name": "",
          "type": "bool"
        }
      ],
      "stateMutability": "view",
      "type": "function"
    },
    {
      "inputs": [
        {
          "internalType": "address",
          "name": "_addr",
          "type": "address"
        }
      ],
      "name": "isContractOwner",
      "outputs": [
        {
          "internalType": "bool",
          "name": "",
          "type": "bool"
        }
      ],
      "stateMutability": "view",
      "type": "function"
    },
    {
      "inputs": [
        {
          "internalType": "address",
          "name": "_id",
          "type": "address"
        }
      ],
      "name": "isGovtAuthority",
      "outputs": [
        {
          "internalType": "bool",
          "name": "",
          "type": "bool"
        }
      ],
      "stateMutability": "view",
      "type": "function"
    },
    {
      "inputs": [
        {
          "internalType": "uint256",
          "name": "id",
          "type": "uint256"
        }
      ],
      "name": "isLandVerified",
      "outputs": [
        {
          "internalType": "bool",
          "name": "",
          "type": "bool"
        }
      ],
      "stateMutability": "view",
      "type": "function"
    },
    {
      "inputs": [
        {
          "internalType": "address",
          "name": "_addr",
          "type": "address"
        }
      ],
      "name": "isUserRegistered",
      "outputs": [
        {
          "internalType": "bool",
          "name": "",
          "type": "bool"
        }
      ],
      "stateMutability": "view",
      "type": "function"
    },
    {
      "inputs": [
        {
          "internalType": "address",
          "name": "id",
          "type": "address"
        }
      ],
      "name": "isUserVerified",
      "outputs": [
        {
          "internalType": "bool",
          "name": "",
          "type": "bool"
        }
      ],
      "stateMutability": "view",
      "type": "function"
    },
    {
      "inputs": [
        {
          "internalType": "uint256",
          "name": "id",
          "type": "uint256"
        }
      ],
      "name": "landPrice",
      "outputs": [
        {
          "internalType": "uint256",
          "name": "",
          "type": "uint256"
        }
      ],
      "stateMutability": "view",
      "type": "function"
    },
    {
      "inputs": [
        {
          "internalType": "uint256",
          "name": "",
          "type": "uint256"
        }
      ],
      "name": "lands",
      "outputs": [
        {
          "internalType": "uint256",
          "name": "id",
          "type": "uint256"
        },
        {
          "internalType": "uint256",
          "name": "area",
          "type": "uint256"
        },
        {
          "internalType": "string",
          "name": "landAddress",
          "type": "string"
        },
        {
          "internalType": "uint256",
          "name": "landPrice",
          "type": "uint256"
        },
        {
          "internalType": "uint256",
          "name": "propertyPID",
          "type": "uint256"
        },
        {
          "internalType": "string",
          "name": "document",
          "type": "string"
        },
        {
          "internalType": "bool",
          "name": "isforSell",
          "type": "bool"
        },
        {
          "internalType": "address payable",
          "name": "ownerAddress",
          "type": "address"
        },
        {
          "internalType": "bool",
          "name": "isLandVerified",
          "type": "bool"
        }
      ],
      "stateMutability": "view",
      "type": "function"
    },
    {
      "inputs": [],
      "name": "landsCount",
      "outputs": [
        {
          "internalType": "uint256",
          "name": "",
          "type": "uint256"
        }
      ],
      "stateMutability": "view",
      "type": "function"
    },
    {
      "inputs": [
        {
          "internalType": "uint256",
          "name": "id",
          "type": "uint256"
        }
      ],
      "name": "makeItforSell",
      "outputs": [],
      "stateMutability": "nonpayable",
      "type": "function"
    },
    {
      "inputs": [
        {
          "internalType": "uint256",
          "name": "_requestId",
          "type": "uint256"
        }
      ],
      "name": "makePayment",
      "outputs": [],
      "stateMutability": "payable",
      "type": "function"
    },
    {
      "inputs": [
        {
          "internalType": "address payable",
          "name": "_reveiver",
          "type": "address"
        }
      ],
      "name": "makePaymentTestFun",
      "outputs": [],
      "stateMutability": "payable",
      "type": "function"
    },
    {
      "inputs": [
        {
          "internalType": "address",
          "name": "id",
          "type": "address"
        }
      ],
      "name": "myAllLands",
      "outputs": [
        {
          "internalType": "uint256[]",
          "name": "",
          "type": "uint256[]"
        }
      ],
      "stateMutability": "view",
      "type": "function"
    },
    {
      "inputs": [],
      "name": "myReceivedLandRequests",
      "outputs": [
        {
          "internalType": "uint256[]",
          "name": "",
          "type": "uint256[]"
        }
      ],
      "stateMutability": "view",
      "type": "function"
    },
    {
      "inputs": [],
      "name": "mySentLandRequests",
      "outputs": [
        {
          "internalType": "uint256[]",
          "name": "",
          "type": "uint256[]"
        }
      ],
      "stateMutability": "view",
      "type": "function"
    },
    {
      "inputs": [],
      "name": "name",
      "outputs": [
        {
          "internalType": "string",
          "name": "",
          "type": "string"
        }
      ],
      "stateMutability": "view",
      "type": "function"
    },
    {
      "inputs": [],
      "name": "owner",
      "outputs": [
        {
          "internalType": "address",
          "name": "",
          "type": "address"
        }
      ],
      "stateMutability": "view",
      "type": "function"
    },
    {
      "inputs": [
        {
          "internalType": "uint256",
          "name": "tokenId",
          "type": "uint256"
        }
      ],
      "name": "ownerOf",
      "outputs": [
        {
          "internalType": "address",
          "name": "",
          "type": "address"
        }
      ],
      "stateMutability": "view",
      "type": "function"
    },
    {
      "inputs": [
        {
          "internalType": "string",
          "name": "_name",
          "type": "string"
        },
        {
          "internalType": "uint256",
          "name": "_age",
          "type": "uint256"
        },
        {
          "internalType": "string",
          "name": "_city",
          "type": "string"
        },
        {
          "internalType": "string",
          "name": "_aadharNumber",
          "type": "string"
        },
        {
          "internalType": "string",
          "name": "_panNumber",
          "type": "string"
        },
        {
          "internalType": "string",
          "name": "_email",
          "type": "string"
        }
      ],
      "name": "registerUser",
      "outputs": [],
      "stateMutability": "nonpayable",
      "type": "function"
    },
    {
      "inputs": [
        {
          "internalType": "uint256",
          "name": "_requestId",
          "type": "uint256"
        }
      ],
      "name": "rejectRequest",
      "outputs": [],
      "stateMutability": "nonpayable",
      "type": "function"
    },
    {
      "inputs": [
        {
          "internalType": "address",
          "name": "_addr",
          "type": "address"
        }
      ],
      "name": "removeGovtAuthority",
      "outputs": [],
      "stateMutability": "nonpayable",
      "type": "function"
    },
    {
      "inputs": [],
      "name": "renounceOwnership",
      "outputs": [],
      "stateMutability": "nonpayable",
      "type": "function"
    },
    {
      "inputs": [
        {
          "internalType": "uint256",
          "name": "id",
          "type": "uint256"
        }
      ],
      "name": "requesteStatus",
      "outputs": [
        {
          "internalType": "bool",
          "name": "",
          "type": "bool"
        }
      ],
      "stateMutability": "view",
      "type": "function"
    },
    {
      "inputs": [
        {
          "internalType": "uint256",
          "name": "_landId",
          "type": "uint256"
        }
      ],
      "name": "requestforBuy",
      "outputs": [],
      "stateMutability": "nonpayable",
      "type": "function"
    },
    {
      "inputs": [],
      "name": "returnPaymentDoneList",
      "outputs": [
        {
          "internalType": "uint256[]",
          "name": "",
          "type": "uint256[]"
        }
      ],
      "stateMutability": "view",
      "type": "function"
    },
    {
      "inputs": [
        {
          "internalType": "address",
          "name": "from",
          "type": "address"
        },
        {
          "internalType": "address",
          "name": "to",
          "type": "address"
        },
        {
          "internalType": "uint256",
          "name": "tokenId",
          "type": "uint256"
        }
      ],
      "name": "safeTransferFrom",
      "outputs": [],
      "stateMutability": "nonpayable",
      "type": "function"
    },
    {
      "inputs": [
        {
          "internalType": "address",
          "name": "from",
          "type": "address"
        },
        {
          "internalType": "address",
          "name": "to",
          "type": "address"
        },
        {
          "internalType": "uint256",
          "name": "tokenId",
          "type": "uint256"
        },
        {
          "internalType": "bytes",
          "name": "data",
          "type": "bytes"
        }
      ],
      "name": "safeTransferFrom",
      "outputs": [],
      "stateMutability": "nonpayable",
      "type": "function"
    },
    {
      "inputs": [
        {
          "internalType": "address",
          "name": "operator",
          "type": "address"
        },
        {
          "internalType": "bool",
          "name": "approved",
          "type": "bool"
        }
      ],
      "name": "setApprovalForAll",
      "outputs": [],
      "stateMutability": "nonpayable",
      "type": "function"
    },
    {
      "inputs": [
        {
          "internalType": "bytes4",
          "name": "interfaceId",
          "type": "bytes4"
        }
      ],
      "name": "supportsInterface",
      "outputs": [
        {
          "internalType": "bool",
          "name": "",
          "type": "bool"
        }
      ],
      "stateMutability": "view",
      "type": "function"
    },
    {
      "inputs": [],
      "name": "symbol",
      "outputs": [
        {
          "internalType": "string",
          "name": "",
          "type": "string"
        }
      ],
      "stateMutability": "view",
      "type": "function"
    },
    {
      "inputs": [
        {
          "internalType": "uint256",
          "name": "tokenId",
          "type": "uint256"
        }
      ],
      "name": "tokenURI",
      "outputs": [
        {
          "internalType": "string",
          "name": "",
          "type": "string"
        }
      ],
      "stateMutability": "view",
      "type": "function"
    },
    {
      "inputs": [
        {
          "internalType": "address",
          "name": "from",
          "type": "address"
        },
        {
          "internalType": "address",
          "name": "to",
          "type": "address"
        },
        {
          "internalType": "uint256",
          "name": "tokenId",
          "type": "uint256"
        }
      ],
      "name": "transferFrom",
      "outputs": [],
      "stateMutability": "nonpayable",
      "type": "function"
    },
    {
      "inputs": [
        {
          "internalType": "address",
          "name": "newOwner",
          "type": "address"
        }
      ],
      "name": "transferOwnership",
      "outputs": [],
      "stateMutability": "nonpayable",
      "type": "function"
    },
    {
      "inputs": [
        {
          "internalType": "uint256",
          "name": "_requestId",
          "type": "uint256"
        },
        {
          "internalType": "string",
          "name": "documentUrl",
          "type": "string"
        }
      ],
      "name": "transferOwnership",
      "outputs": [
        {
          "internalType": "bool",
          "name": "",
          "type": "bool"
        }
      ],
      "stateMutability": "nonpayable",
      "type": "function"
    },
    {
      "inputs": [],
      "name": "userCount",
      "outputs": [
        {
          "internalType": "uint256",
          "name": "",
          "type": "uint256"
        }
      ],
      "stateMutability": "view",
      "type": "function"
    },
    {
      "inputs": [
        {
          "internalType": "uint256",
          "name": "_id",
          "type": "uint256"
        }
      ],
      "name": "verifyLand",
      "outputs": [],
      "stateMutability": "nonpayable",
      "type": "function"
    },
    {
      "inputs": [
        {
          "internalType": "address",
          "name": "_userId",
          "type": "address"
        }
      ],
      "name": "verifyUser",
      "outputs": [],
      "stateMutability": "nonpayable",
      "type": "function"
    }
  ],
  "bytecode": "0x60806040523480156200001157600080fd5b50336040518060400160405280600781526020017f4c616e644e4654000000000000000000000000000000000000000000000000008152506040518060400160405280600381526020017f4c4e4400000000000000000000000000000000000000000000000000000000008152508160009081620000909190620004b3565b508060019081620000a29190620004b3565b505050600073ffffffffffffffffffffffffffffffffffffffff168173ffffffffffffffffffffffffffffffffffffffff16036200011a5760006040517f1e4fbdf7000000000000000000000000000000000000000000000000000000008152600401620001119190620005df565b60405180910390fd5b6200012b816200017360201b60201c565b5033600860006101000a81548173ffffffffffffffffffffffffffffffffffffffff021916908373ffffffffffffffffffffffffffffffffffffffff160217905550620005fc565b6000600760009054906101000a900473ffffffffffffffffffffffffffffffffffffffff16905081600760006101000a81548173ffffffffffffffffffffffffffffffffffffffff021916908373ffffffffffffffffffffffffffffffffffffffff1602179055508173ffffffffffffffffffffffffffffffffffffffff168173ffffffffffffffffffffffffffffffffffffffff167f8be0079c531659141344cd1fd0a4f28419497f9722a3daafe3b4186f6b6457e060405160405180910390a35050565b600081519050919050565b7f4e487b7100000000000000000000000000000000000000000000000000000000600052604160045260246000fd5b7f4e487b7100000000000000000000000000000000000000000000000000000000600052602260045260246000fd5b60006002820490506001821680620002bb57607f821691505b602082108103620002d157620002d062000273565b5b50919050565b60008190508160005260206000209050919050565b60006020601f8301049050919050565b600082821b905092915050565b6000600883026200033b7fffffffffffffffffffffffffffffffffffffffffffffffffffffffffffffffff82620002fc565b620003478683620002fc565b95508019841693508086168417925050509392505050565b6000819050919050565b6000819050919050565b6000620003946200038e62000388846200035f565b62000369565b6200035f565b9050919050565b6000819050919050565b620003b08362000373565b620003c8620003bf826200039b565b84845462000309565b825550505050565b600090565b620003df620003d0565b620003ec818484620003a5565b505050565b5b81811015620004145762000408600082620003d5565b600181019050620003f2565b5050565b601f82111562000463576200042d81620002d7565b6200043884620002ec565b8101602085101562000448578190505b620004606200045785620002ec565b830182620003f1565b50505b505050565b600082821c905092915050565b6000620004886000198460080262000468565b1980831691505092915050565b6000620004a3838362000475565b9150826002028217905092915050565b620004be8262000239565b67ffffffffffffffff811115620004da57620004d962000244565b5b620004e68254620002a2565b620004f382828562000418565b600060209050601f8311600181146200052b576000841562000516578287015190505b62000522858262000495565b86555062000592565b601f1984166200053b86620002d7565b60005b8281101562000565578489015182556001820191506020850194506020810190506200053e565b8683101562000585578489015162000581601f89168262000475565b8355505b6001600288020188555050505b505050505050565b600073ffffffffffffffffffffffffffffffffffffffff82169050919050565b6000620005c7826200059a565b9050919050565b620005d981620005ba565b82525050565b6000602082019050620005f66000830184620005ce565b92915050565b615f80806200060c6000396000f3fe6080604052600436106102ff5760003560e01c80639c32e3b411610190578063d196ebf2116100dc578063e261f1e511610095578063e985e9c51161006f578063e985e9c514610c23578063f2fde38b14610c60578063f9c43bdf14610c89578063fa02454914610cb2576102ff565b8063e261f1e514610b73578063e56e1abe14610bb8578063e9858b4d14610bfa576102ff565b8063d196ebf214610a12578063d3b368c014610a4f578063d61ff68c14610a78578063d72ca9ec14610abc578063d8513de414610af9578063de11768814610b36576102ff565b8063ace417e011610149578063b88d4fde11610123578063b88d4fde14610958578063c26e11eb14610981578063c87b56dd146109aa578063ce606ee0146109e7576102ff565b8063ace417e01461089c578063aeb6e1aa146108d9578063b10a30ed14610916576102ff565b80639c32e3b4146107a0578063a13d648f146107cb578063a22cb465146107f4578063a29c148d1461081d578063a38a229f14610848578063a846fc8f14610871576102ff565b8063499701b21161024f5780636cbf6cf81161020857806378f7c83f116101e257806378f7c83f146107035780638da5cb5b1461072e57806395d89b4114610759578063995a8d9614610784576102ff565b80636cbf6cf81461067257806370a08231146106af578063715018a6146106ec576102ff565b8063499701b2146105715780634ba1f0981461059c5780634d813120146105c55780635114cb52146105ee578063553a998d1461060a5780636352211e14610635576102ff565b80631c9afd0f116102bc57806323b872dd1161029657806323b872dd146104cd5780632d7788db146104f65780633ead67b51461051f57806342842e0e14610548576102ff565b80631c9afd0f1461043a57806322c8a2fc1461046557806323393d77146104a2576102ff565b806301ffc9a71461030457806306fdde031461034157806307973ccf1461036c578063081812fc14610397578063095ea7b3146103d4578063163f7522146103fd575b600080fd5b34801561031057600080fd5b5061032b60048036038101906103269190614aa3565b610cef565b6040516103389190614aeb565b60405180910390f35b34801561034d57600080fd5b50610356610d50565b6040516103639190614b96565b60405180910390f35b34801561037857600080fd5b50610381610de2565b60405161038e9190614bd1565b60405180910390f35b3480156103a357600080fd5b506103be60048036038101906103b99190614c18565b610de8565b6040516103cb9190614c86565b60405180910390f35b3480156103e057600080fd5b506103fb60048036038101906103f69190614ccd565b610e04565b005b34801561040957600080fd5b50610424600480360381019061041f9190614d0d565b610e1a565b6040516104319190614aeb565b60405180910390f35b34801561044657600080fd5b5061044f610e70565b60405161045c9190614bd1565b60405180910390f35b34801561047157600080fd5b5061048c60048036038101906104879190614d0d565b610e76565b6040516104999190614aeb565b60405180910390f35b3480156104ae57600080fd5b506104b7610ecc565b6040516104c49190614df8565b60405180910390f35b3480156104d957600080fd5b506104f460048036038101906104ef9190614e1a565b610f36565b005b34801561050257600080fd5b5061051d60048036038101906105189190614c18565b611038565b005b34801561052b57600080fd5b5061054660048036038101906105419190614d0d565b6110e8565b005b34801561055457600080fd5b5061056f600480360381019061056a9190614e1a565b6111bc565b005b34801561057d57600080fd5b506105866111dc565b6040516105939190614df8565b60405180910390f35b3480156105a857600080fd5b506105c360048036038101906105be9190614c18565b611271565b005b3480156105d157600080fd5b506105ec60048036038101906105e79190614d0d565b611321565b005b61060860048036038101906106039190614c18565b611391565b005b34801561061657600080fd5b5061061f611591565b60405161062c9190614f2b565b60405180910390f35b34801561064157600080fd5b5061065c60048036038101906106579190614c18565b611631565b6040516106699190614c86565b60405180910390f35b34801561067e57600080fd5b5061069960048036038101906106949190614c18565b611643565b6040516106a69190614aeb565b60405180910390f35b3480156106bb57600080fd5b506106d660048036038101906106d19190614d0d565b611670565b6040516106e39190614bd1565b60405180910390f35b3480156106f857600080fd5b5061070161172a565b005b34801561070f57600080fd5b5061071861173e565b6040516107259190614bd1565b60405180910390f35b34801561073a57600080fd5b50610743611744565b6040516107509190614c86565b60405180910390f35b34801561076557600080fd5b5061076e61176e565b60405161077b9190614b96565b60405180910390f35b61079e60048036038101906107999190614f8b565b611800565b005b3480156107ac57600080fd5b506107b561184a565b6040516107c29190614df8565b60405180910390f35b3480156107d757600080fd5b506107f260048036038101906107ed9190614d0d565b6118df565b005b34801561080057600080fd5b5061081b60048036038101906108169190614fe4565b611c38565b005b34801561082957600080fd5b50610832611c4e565b60405161083f9190614f2b565b60405180910390f35b34801561085457600080fd5b5061086f600480360381019061086a9190615159565b611cee565b005b34801561087d57600080fd5b50610886611ffa565b6040516108939190614df8565b60405180910390f35b3480156108a857600080fd5b506108c360048036038101906108be9190614d0d565b612064565b6040516108d09190614aeb565b60405180910390f35b3480156108e557600080fd5b5061090060048036038101906108fb9190615272565b6120bd565b60405161090d9190614aeb565b60405180910390f35b34801561092257600080fd5b5061093d60048036038101906109389190614c18565b612376565b60405161094f969594939291906153c7565b60405180910390f35b34801561096457600080fd5b5061097f600480360381019061097a91906154c9565b61240c565b005b34801561098d57600080fd5b506109a860048036038101906109a39190614c18565b612429565b005b3480156109b657600080fd5b506109d160048036038101906109cc9190614c18565b6124c9565b6040516109de9190614b96565b60405180910390f35b3480156109f357600080fd5b506109fc6125dc565b604051610a099190614c86565b60405180910390f35b348015610a1e57600080fd5b50610a396004803603810190610a349190614d0d565b612602565b604051610a469190614df8565b60405180910390f35b348015610a5b57600080fd5b50610a766004803603810190610a719190614c18565b612699565b005b348015610a8457600080fd5b50610a9f6004803603810190610a9a9190614d0d565b61298e565b604051610ab398979695949392919061554c565b60405180910390f35b348015610ac857600080fd5b50610ae36004803603810190610ade9190614c18565b612cab565b604051610af09190614bd1565b60405180910390f35b348015610b0557600080fd5b50610b206004803603810190610b1b9190614c18565b612ccb565b604051610b2d9190614aeb565b60405180910390f35b348015610b4257600080fd5b50610b5d6004803603810190610b589190614d0d565b612cf8565b604051610b6a9190614aeb565b60405180910390f35b348015610b7f57600080fd5b50610b9a6004803603810190610b959190614c18565b612d52565b604051610baf999897969594939291906155ed565b60405180910390f35b348015610bc457600080fd5b50610bdf6004803603810190610bda9190614d0d565b612eea565b604051610bf196959493929190615688565b60405180910390f35b348015610c0657600080fd5b50610c216004803603810190610c1c91906156fe565b6130de565b005b348015610c2f57600080fd5b50610c4a6004803603810190610c4591906157b1565b61330c565b604051610c579190614aeb565b60405180910390f35b348015610c6c57600080fd5b50610c876004803603810190610c829190614d0d565b6133a0565b005b348015610c9557600080fd5b50610cb06004803603810190610cab9190614c18565b613426565b005b348015610cbe57600080fd5b50610cd96004803603810190610cd491906157f1565b61346a565b604051610ce69190614aeb565b60405180910390f35b6000634906490660e01b7bffffffffffffffffffffffffffffffffffffffffffffffffffffffff1916827bffffffffffffffffffffffffffffffffffffffffffffffffffffffff19161480610d495750610d4882613a02565b5b9050919050565b606060008054610d5f9061587c565b80601f0160208091040260200160405190810160405280929190818152602001828054610d8b9061587c565b8015610dd85780601f10610dad57610100808354040283529160200191610dd8565b820191906000526020600020905b815481529060010190602001808311610dbb57829003601f168201915b5050505050905090565b600a5481565b6000610df382613ae4565b50610dfd82613b6c565b9050919050565b610e168282610e11613ba9565b613bb1565b5050565b6000601460008373ffffffffffffffffffffffffffffffffffffffff1673ffffffffffffffffffffffffffffffffffffffff16815260200190815260200160002060009054906101000a900460ff169050919050565b600b5481565b6000601060008373ffffffffffffffffffffffffffffffffffffffff1673ffffffffffffffffffffffffffffffffffffffff16815260200190815260200160002060009054906101000a900460ff169050919050565b6060601a600060018152602001908152602001600020805480602002602001604051908101604052809291908181526020018280548015610f2c57602002820191906000526020600020905b815481526020019060010190808311610f18575b5050505050905090565b600073ffffffffffffffffffffffffffffffffffffffff168273ffffffffffffffffffffffffffffffffffffffff1603610fa85760006040517f64a0ae92000000000000000000000000000000000000000000000000000000008152600401610f9f9190614c86565b60405180910390fd5b6000610fbc8383610fb7613ba9565b613bc3565b90508373ffffffffffffffffffffffffffffffffffffffff168173ffffffffffffffffffffffffffffffffffffffff1614611032578382826040517f64283d7b000000000000000000000000000000000000000000000000000000008152600401611029939291906158ad565b60405180910390fd5b50505050565b3373ffffffffffffffffffffffffffffffffffffffff166017600083815260200190815260200160002060010160009054906101000a900473ffffffffffffffffffffffffffffffffffffffff1673ffffffffffffffffffffffffffffffffffffffff16146110a657600080fd5b60026017600083815260200190815260200160002060040160006101000a81548160ff021916908360048111156110e0576110df615350565b5b021790555050565b600860009054906101000a900473ffffffffffffffffffffffffffffffffffffffff1673ffffffffffffffffffffffffffffffffffffffff163373ffffffffffffffffffffffffffffffffffffffff1614611178576040517f08c379a000000000000000000000000000000000000000000000000000000000815260040161116f90615930565b60405180910390fd5b80600860006101000a81548173ffffffffffffffffffffffffffffffffffffffff021916908373ffffffffffffffffffffffffffffffffffffffff16021790555050565b6111d78383836040518060200160405280600081525061240c565b505050565b6060601860003373ffffffffffffffffffffffffffffffffffffffff1673ffffffffffffffffffffffffffffffffffffffff16815260200190815260200160002080548060200260200160405190810160405280929190818152602001828054801561126757602002820191906000526020600020905b815481526020019060010190808311611253575b5050505050905090565b3373ffffffffffffffffffffffffffffffffffffffff166017600083815260200190815260200160002060010160009054906101000a900473ffffffffffffffffffffffffffffffffffffffff1673ffffffffffffffffffffffffffffffffffffffff16146112df57600080fd5b60016017600083815260200190815260200160002060040160006101000a81548160ff0219169083600481111561131957611318615350565b5b021790555050565b61132a33610e76565b61133357600080fd5b6001601160008373ffffffffffffffffffffffffffffffffffffffff1673ffffffffffffffffffffffffffffffffffffffff16815260200190815260200160002060070160006101000a81548160ff02191690831515021790555050565b3373ffffffffffffffffffffffffffffffffffffffff166017600083815260200190815260200160002060020160009054906101000a900473ffffffffffffffffffffffffffffffffffffffff1673ffffffffffffffffffffffffffffffffffffffff1614801561144957506001600481111561141157611410615350565b5b6017600083815260200190815260200160002060040160009054906101000a900460ff16600481111561144757611446615350565b5b145b61145257600080fd5b60036017600083815260200190815260200160002060040160006101000a81548160ff0219169083600481111561148c5761148b615350565b5b0217905550601660006017600084815260200190815260200160002060030154815260200190815260200160002060060160019054906101000a900473ffffffffffffffffffffffffffffffffffffffff1673ffffffffffffffffffffffffffffffffffffffff166108fc349081150290604051600060405180830381858888f19350505050158015611523573d6000803e3d6000fd5b5060016017600083815260200190815260200160002060040160016101000a81548160ff021916908315150217905550601b60006001815260200190815260200160002081908060018154018082558091505060019003906000526020600020016000909190919091505550565b6060601360006001815260200190815260200160002080548060200260200160405190810160405280929190818152602001828054801561162757602002820191906000526020600020905b8160009054906101000a900473ffffffffffffffffffffffffffffffffffffffff1673ffffffffffffffffffffffffffffffffffffffff16815260200190600101908083116115dd575b5050505050905090565b600061163c82613ae4565b9050919050565b60006016600083815260200190815260200160002060060160159054906101000a900460ff169050919050565b60008073ffffffffffffffffffffffffffffffffffffffff168273ffffffffffffffffffffffffffffffffffffffff16036116e35760006040517f89c62b640000000000000000000000000000000000000000000000000000000081526004016116da9190614c86565b60405180910390fd5b600360008373ffffffffffffffffffffffffffffffffffffffff1673ffffffffffffffffffffffffffffffffffffffff168152602001908152602001600020549050919050565b611732613ddd565b61173c6000613e64565b565b600c5481565b6000600760009054906101000a900473ffffffffffffffffffffffffffffffffffffffff16905090565b60606001805461177d9061587c565b80601f01602080910402602001604051908101604052809291908181526020018280546117a99061587c565b80156117f65780601f106117cb576101008083540402835291602001916117f6565b820191906000526020600020905b8154815290600101906020018083116117d957829003601f168201915b5050505050905090565b8073ffffffffffffffffffffffffffffffffffffffff166108fc349081150290604051600060405180830381858888f19350505050158015611846573d6000803e3d6000fd5b5050565b6060601960003373ffffffffffffffffffffffffffffffffffffffff1673ffffffffffffffffffffffffffffffffffffffff1681526020019081526020016000208054806020026020016040519081016040528092919081815260200182805480156118d557602002820191906000526020600020905b8154815260200190600101908083116118c1575b5050505050905090565b600860009054906101000a900473ffffffffffffffffffffffffffffffffffffffff1673ffffffffffffffffffffffffffffffffffffffff163373ffffffffffffffffffffffffffffffffffffffff161461196f576040517f08c379a00000000000000000000000000000000000000000000000000000000081526004016119669061599c565b60405180910390fd5b601060008273ffffffffffffffffffffffffffffffffffffffff1673ffffffffffffffffffffffffffffffffffffffff16815260200190815260200160002060009054906101000a900460ff166119fb576040517f08c379a00000000000000000000000000000000000000000000000000000000081526004016119f290615a08565b60405180910390fd5b6000601060008373ffffffffffffffffffffffffffffffffffffffff1673ffffffffffffffffffffffffffffffffffffffff16815260200190815260200160002060006101000a81548160ff0219169083151502179055506000600f60006001815260200190815260200160002080549050905060005b81811015611c33578273ffffffffffffffffffffffffffffffffffffffff16600f6000600181526020019081526020016000208281548110611ab757611ab6615a28565b5b9060005260206000200160009054906101000a900473ffffffffffffffffffffffffffffffffffffffff1673ffffffffffffffffffffffffffffffffffffffff1603611c2657600f600060018152602001908152602001600020600183611b1e9190615a86565b81548110611b2f57611b2e615a28565b5b9060005260206000200160009054906101000a900473ffffffffffffffffffffffffffffffffffffffff16600f6000600181526020019081526020016000208281548110611b8057611b7f615a28565b5b9060005260206000200160006101000a81548173ffffffffffffffffffffffffffffffffffffffff021916908373ffffffffffffffffffffffffffffffffffffffff160217905550600f600060018152602001908152602001600020805480611bec57611beb615aba565b5b6001900381819060005260206000200160006101000a81549073ffffffffffffffffffffffffffffffffffffffff02191690559055611c33565b8080600101915050611a72565b505050565b611c4a611c43613ba9565b8383613f2a565b5050565b6060600f600060018152602001908152602001600020805480602002602001604051908101604052809291908181526020018280548015611ce457602002820191906000526020600020905b8160009054906101000a900473ffffffffffffffffffffffffffffffffffffffff1673ffffffffffffffffffffffffffffffffffffffff1681526020019060010190808311611c9a575b5050505050905090565b601460003373ffffffffffffffffffffffffffffffffffffffff1673ffffffffffffffffffffffffffffffffffffffff16815260200190815260200160002060009054906101000a900460ff1615611d4557600080fd5b6001601460003373ffffffffffffffffffffffffffffffffffffffff1673ffffffffffffffffffffffffffffffffffffffff16815260200190815260200160002060006101000a81548160ff021916908315150217905550600a6000815480929190611db090615ae9565b91905055506013600060018152602001908152602001600020339080600181540180825580915050600190039060005260206000200160009091909190916101000a81548173ffffffffffffffffffffffffffffffffffffffff021916908373ffffffffffffffffffffffffffffffffffffffff1602179055503360126000600a54815260200190815260200160002060006101000a81548173ffffffffffffffffffffffffffffffffffffffff021916908373ffffffffffffffffffffffffffffffffffffffff1602179055506040518061010001604052803373ffffffffffffffffffffffffffffffffffffffff16815260200187815260200186815260200185815260200184815260200183815260200182815260200160001515815250601160003373ffffffffffffffffffffffffffffffffffffffff1673ffffffffffffffffffffffffffffffffffffffff16815260200190815260200160002060008201518160000160006101000a81548173ffffffffffffffffffffffffffffffffffffffff021916908373ffffffffffffffffffffffffffffffffffffffff1602179055506020820151816001019081611f6c9190615cdd565b50604082015181600201556060820151816003019081611f8c9190615cdd565b506080820151816004019081611fa29190615cdd565b5060a0820151816005019081611fb89190615cdd565b5060c0820151816006019081611fce9190615cdd565b5060e08201518160070160006101000a81548160ff021916908315150217905550905050505050505050565b6060601b60006001815260200190815260200160002080548060200260200160405190810160405280929190818152602001828054801561205a57602002820191906000526020600020905b815481526020019060010190808311612046575b5050505050905090565b6000601160008373ffffffffffffffffffffffffffffffffffffffff1673ffffffffffffffffffffffffffffffffffffffff16815260200190815260200160002060070160009054906101000a900460ff169050919050565b60003373ffffffffffffffffffffffffffffffffffffffff16600860009054906101000a900473ffffffffffffffffffffffffffffffffffffffff1673ffffffffffffffffffffffffffffffffffffffff161461211d576000905061236d565b3373ffffffffffffffffffffffffffffffffffffffff16600860009054906101000a900473ffffffffffffffffffffffffffffffffffffffff1673ffffffffffffffffffffffffffffffffffffffff161461217757600080fd5b6001601060008873ffffffffffffffffffffffffffffffffffffffff1673ffffffffffffffffffffffffffffffffffffffff16815260200190815260200160002060006101000a81548160ff021916908315150217905550600f600060018152602001908152602001600020869080600181540180825580915050600190039060005260206000200160009091909190916101000a81548173ffffffffffffffffffffffffffffffffffffffff021916908373ffffffffffffffffffffffffffffffffffffffff1602179055506040518060c0016040528060095481526020018773ffffffffffffffffffffffffffffffffffffffff16815260200186815260200185815260200184815260200183815250600e60008873ffffffffffffffffffffffffffffffffffffffff1673ffffffffffffffffffffffffffffffffffffffff1681526020019081526020016000206000820151816000015560208201518160010160006101000a81548173ffffffffffffffffffffffffffffffffffffffff021916908373ffffffffffffffffffffffffffffffffffffffff160217905550604082015181600201908161232e9190615cdd565b5060608201518160030155608082015181600401908161234e9190615cdd565b5060a08201518160050190816123649190615cdd565b50905050600190505b95945050505050565b60176020528060005260406000206000915090508060000154908060010160009054906101000a900473ffffffffffffffffffffffffffffffffffffffff16908060020160009054906101000a900473ffffffffffffffffffffffffffffffffffffffff16908060030154908060040160009054906101000a900460ff16908060040160019054906101000a900460ff16905086565b612417848484610f36565b61242384848484614099565b50505050565b3373ffffffffffffffffffffffffffffffffffffffff166016600083815260200190815260200160002060060160019054906101000a900473ffffffffffffffffffffffffffffffffffffffff1673ffffffffffffffffffffffffffffffffffffffff161461249757600080fd5b60016016600083815260200190815260200160002060060160006101000a81548160ff02191690831515021790555050565b60606124d482613ae4565b5060006006600084815260200190815260200160002080546124f59061587c565b80601f01602080910402602001604051908101604052809291908181526020018280546125219061587c565b801561256e5780601f106125435761010080835404028352916020019161256e565b820191906000526020600020905b81548152906001019060200180831161255157829003601f168201915b50505050509050600061257f614250565b905060008151036125945781925050506125d7565b6000825111156125c95780826040516020016125b1929190615deb565b604051602081830303815290604052925050506125d7565b6125d284614267565b925050505b919050565b600860009054906101000a900473ffffffffffffffffffffffffffffffffffffffff1681565b6060601560008373ffffffffffffffffffffffffffffffffffffffff1673ffffffffffffffffffffffffffffffffffffffff16815260200190815260200160002080548060200260200160405190810160405280929190818152602001828054801561268d57602002820191906000526020600020905b815481526020019060010190808311612679575b50505050509050919050565b6126a233612064565b80156126b357506126b281611643565b5b6126bc57600080fd5b600d60008154809291906126cf90615ae9565b91905055506040518060c00160405280600d5481526020016016600084815260200190815260200160002060060160019054906101000a900473ffffffffffffffffffffffffffffffffffffffff1673ffffffffffffffffffffffffffffffffffffffff1681526020013373ffffffffffffffffffffffffffffffffffffffff1681526020018281526020016000600481111561276f5761276e615350565b5b81526020016000151581525060176000600d5481526020019081526020016000206000820151816000015560208201518160010160006101000a81548173ffffffffffffffffffffffffffffffffffffffff021916908373ffffffffffffffffffffffffffffffffffffffff16021790555060408201518160020160006101000a81548173ffffffffffffffffffffffffffffffffffffffff021916908373ffffffffffffffffffffffffffffffffffffffff1602179055506060820151816003015560808201518160040160006101000a81548160ff0219169083600481111561285d5761285c615350565b5b021790555060a08201518160040160016101000a81548160ff021916908315150217905550905050601860006016600084815260200190815260200160002060060160019054906101000a900473ffffffffffffffffffffffffffffffffffffffff1673ffffffffffffffffffffffffffffffffffffffff1673ffffffffffffffffffffffffffffffffffffffff168152602001908152602001600020600d549080600181540180825580915050600190039060005260206000200160009091909190915055601960003373ffffffffffffffffffffffffffffffffffffffff1673ffffffffffffffffffffffffffffffffffffffff168152602001908152602001600020600d54908060018154018082558091505060019003906000526020600020016000909190919091505550565b60116020528060005260406000206000915090508060000160009054906101000a900473ffffffffffffffffffffffffffffffffffffffff16908060010180546129d79061587c565b80601f0160208091040260200160405190810160405280929190818152602001828054612a039061587c565b8015612a505780601f10612a2557610100808354040283529160200191612a50565b820191906000526020600020905b815481529060010190602001808311612a3357829003601f168201915b505050505090806002015490806003018054612a6b9061587c565b80601f0160208091040260200160405190810160405280929190818152602001828054612a979061587c565b8015612ae45780601f10612ab957610100808354040283529160200191612ae4565b820191906000526020600020905b815481529060010190602001808311612ac757829003601f168201915b505050505090806004018054612af99061587c565b80601f0160208091040260200160405190810160405280929190818152602001828054612b259061587c565b8015612b725780601f10612b4757610100808354040283529160200191612b72565b820191906000526020600020905b815481529060010190602001808311612b5557829003601f168201915b505050505090806005018054612b879061587c565b80601f0160208091040260200160405190810160405280929190818152602001828054612bb39061587c565b8015612c005780601f10612bd557610100808354040283529160200191612c00565b820191906000526020600020905b815481529060010190602001808311612be357829003601f168201915b505050505090806006018054612c159061587c565b80601f0160208091040260200160405190810160405280929190818152602001828054612c419061587c565b8015612c8e5780601f10612c6357610100808354040283529160200191612c8e565b820191906000526020600020905b815481529060010190602001808311612c7157829003601f168201915b5050505050908060070160009054906101000a900460ff16905088565b600060166000838152602001908152602001600020600301549050919050565b60006017600083815260200190815260200160002060040160019054906101000a900460ff169050919050565b6000600860009054906101000a900473ffffffffffffffffffffffffffffffffffffffff1673ffffffffffffffffffffffffffffffffffffffff168273ffffffffffffffffffffffffffffffffffffffff16149050919050565b6016602052806000526040600020600091509050806000015490806001015490806002018054612d819061587c565b80601f0160208091040260200160405190810160405280929190818152602001828054612dad9061587c565b8015612dfa5780601f10612dcf57610100808354040283529160200191612dfa565b820191906000526020600020905b815481529060010190602001808311612ddd57829003601f168201915b505050505090806003015490806004015490806005018054612e1b9061587c565b80601f0160208091040260200160405190810160405280929190818152602001828054612e479061587c565b8015612e945780601f10612e6957610100808354040283529160200191612e94565b820191906000526020600020905b815481529060010190602001808311612e7757829003601f168201915b5050505050908060060160009054906101000a900460ff16908060060160019054906101000a900473ffffffffffffffffffffffffffffffffffffffff16908060060160159054906101000a900460ff16905089565b600e6020528060005260406000206000915090508060000154908060010160009054906101000a900473ffffffffffffffffffffffffffffffffffffffff1690806002018054612f399061587c565b80601f0160208091040260200160405190810160405280929190818152602001828054612f659061587c565b8015612fb25780601f10612f8757610100808354040283529160200191612fb2565b820191906000526020600020905b815481529060010190602001808311612f9557829003601f168201915b505050505090806003015490806004018054612fcd9061587c565b80601f0160208091040260200160405190810160405280929190818152602001828054612ff99061587c565b80156130465780601f1061301b57610100808354040283529160200191613046565b820191906000526020600020905b81548152906001019060200180831161302957829003601f168201915b50505050509080600501805461305b9061587c565b80601f01602080910402602001604051908101604052809291908181526020018280546130879061587c565b80156130d45780601f106130a9576101008083540402835291602001916130d4565b820191906000526020600020905b8154815290600101906020018083116130b757829003601f168201915b5050505050905086565b600b60008154809291906130f190615ae9565b9190505550604051806101200160405280600b5481526020018681526020018581526020018481526020018381526020018281526020016000151581526020013373ffffffffffffffffffffffffffffffffffffffff1681526020016000151581525060166000600b548152602001908152602001600020600082015181600001556020820151816001015560408201518160020190816131929190615cdd565b50606082015181600301556080820151816004015560a08201518160050190816131bc9190615cdd565b5060c08201518160060160006101000a81548160ff02191690831515021790555060e08201518160060160016101000a81548173ffffffffffffffffffffffffffffffffffffffff021916908373ffffffffffffffffffffffffffffffffffffffff1602179055506101008201518160060160156101000a81548160ff021916908315150217905550905050601560003373ffffffffffffffffffffffffffffffffffffffff1673ffffffffffffffffffffffffffffffffffffffff168152602001908152602001600020600b549080600181540180825580915050600190039060005260206000200160009091909190915055601a600060018152602001908152602001600020600b5490806001815401808255809150506001900390600052602060002001600090919091909150556132f933600b546142d0565b613305600b54826143c9565b5050505050565b6000600560008473ffffffffffffffffffffffffffffffffffffffff1673ffffffffffffffffffffffffffffffffffffffff16815260200190815260200160002060008373ffffffffffffffffffffffffffffffffffffffff1673ffffffffffffffffffffffffffffffffffffffff16815260200190815260200160002060009054906101000a900460ff16905092915050565b6133a8613ddd565b600073ffffffffffffffffffffffffffffffffffffffff168173ffffffffffffffffffffffffffffffffffffffff160361341a5760006040517f1e4fbdf70000000000000000000000000000000000000000000000000000000081526004016134119190614c86565b60405180910390fd5b61342381613e64565b50565b61342f33610e76565b61343857600080fd5b60016016600083815260200190815260200160002060060160156101000a81548160ff02191690831515021790555050565b600061347533610e76565b61347e57600080fd5b600015156017600085815260200190815260200160002060040160019054906101000a900460ff161515036134b657600090506139fc565b600c60008154809291906134c990615ae9565b919050555060046017600085815260200190815260200160002060040160006101000a81548160ff0219169083600481111561350857613507615350565b5b0217905550601560006017600086815260200190815260200160002060020160009054906101000a900473ffffffffffffffffffffffffffffffffffffffff1673ffffffffffffffffffffffffffffffffffffffff1673ffffffffffffffffffffffffffffffffffffffff168152602001908152602001600020601760008581526020019081526020016000206003015490806001815401808255809150506001900390600052602060002001600090919091909150556000601560006017600087815260200190815260200160002060010160009054906101000a900473ffffffffffffffffffffffffffffffffffffffff1673ffffffffffffffffffffffffffffffffffffffff1673ffffffffffffffffffffffffffffffffffffffff16815260200190815260200160002080549050905060005b818110156138d5576017600086815260200190815260200160002060030154601560006017600089815260200190815260200160002060010160009054906101000a900473ffffffffffffffffffffffffffffffffffffffff1673ffffffffffffffffffffffffffffffffffffffff1673ffffffffffffffffffffffffffffffffffffffff16815260200190815260200160002082815481106136e5576136e4615a28565b5b9060005260206000200154036138c857601560006017600088815260200190815260200160002060010160009054906101000a900473ffffffffffffffffffffffffffffffffffffffff1673ffffffffffffffffffffffffffffffffffffffff1673ffffffffffffffffffffffffffffffffffffffff1681526020019081526020016000206001836137779190615a86565b8154811061378857613787615a28565b5b9060005260206000200154601560006017600089815260200190815260200160002060010160009054906101000a900473ffffffffffffffffffffffffffffffffffffffff1673ffffffffffffffffffffffffffffffffffffffff1673ffffffffffffffffffffffffffffffffffffffff168152602001908152602001600020828154811061381a57613819615a28565b5b9060005260206000200181905550601560006017600088815260200190815260200160002060010160009054906101000a900473ffffffffffffffffffffffffffffffffffffffff1673ffffffffffffffffffffffffffffffffffffffff1673ffffffffffffffffffffffffffffffffffffffff1681526020019081526020016000208054806138ad576138ac615aba565b5b600190038181906000526020600020016000905590556138d5565b808060010191505061363f565b50826016600060176000888152602001908152602001600020600301548152602001908152602001600020600501908161390f9190615cdd565b506000601660006017600088815260200190815260200160002060030154815260200190815260200160002060060160006101000a81548160ff0219169083151502179055506017600085815260200190815260200160002060020160009054906101000a900473ffffffffffffffffffffffffffffffffffffffff16601660006017600088815260200190815260200160002060030154815260200190815260200160002060060160016101000a81548173ffffffffffffffffffffffffffffffffffffffff021916908373ffffffffffffffffffffffffffffffffffffffff16021790555060019150505b92915050565b60007f80ac58cd000000000000000000000000000000000000000000000000000000007bffffffffffffffffffffffffffffffffffffffffffffffffffffffff1916827bffffffffffffffffffffffffffffffffffffffffffffffffffffffff19161480613acd57507f5b5e139f000000000000000000000000000000000000000000000000000000007bffffffffffffffffffffffffffffffffffffffffffffffffffffffff1916827bffffffffffffffffffffffffffffffffffffffffffffffffffffffff1916145b80613add5750613adc82614425565b5b9050919050565b600080613af08361448f565b9050600073ffffffffffffffffffffffffffffffffffffffff168173ffffffffffffffffffffffffffffffffffffffff1603613b6357826040517f7e273289000000000000000000000000000000000000000000000000000000008152600401613b5a9190614bd1565b60405180910390fd5b80915050919050565b60006004600083815260200190815260200160002060009054906101000a900473ffffffffffffffffffffffffffffffffffffffff169050919050565b600033905090565b613bbe83838360016144cc565b505050565b600080613bcf8461448f565b9050600073ffffffffffffffffffffffffffffffffffffffff168373ffffffffffffffffffffffffffffffffffffffff1614613c1157613c10818486614691565b5b600073ffffffffffffffffffffffffffffffffffffffff168173ffffffffffffffffffffffffffffffffffffffff1614613ca257613c536000856000806144cc565b6001600360008373ffffffffffffffffffffffffffffffffffffffff1673ffffffffffffffffffffffffffffffffffffffff168152602001908152602001600020600082825403925050819055505b600073ffffffffffffffffffffffffffffffffffffffff168573ffffffffffffffffffffffffffffffffffffffff1614613d25576001600360008773ffffffffffffffffffffffffffffffffffffffff1673ffffffffffffffffffffffffffffffffffffffff168152602001908152602001600020600082825401925050819055505b846002600086815260200190815260200160002060006101000a81548173ffffffffffffffffffffffffffffffffffffffff021916908373ffffffffffffffffffffffffffffffffffffffff160217905550838573ffffffffffffffffffffffffffffffffffffffff168273ffffffffffffffffffffffffffffffffffffffff167fddf252ad1be2c89b69c2b068fc378daa952ba7f163c4a11628f55a4df523b3ef60405160405180910390a4809150509392505050565b613de5613ba9565b73ffffffffffffffffffffffffffffffffffffffff16613e03611744565b73ffffffffffffffffffffffffffffffffffffffff1614613e6257613e26613ba9565b6040517f118cdaa7000000000000000000000000000000000000000000000000000000008152600401613e599190614c86565b60405180910390fd5b565b6000600760009054906101000a900473ffffffffffffffffffffffffffffffffffffffff16905081600760006101000a81548173ffffffffffffffffffffffffffffffffffffffff021916908373ffffffffffffffffffffffffffffffffffffffff1602179055508173ffffffffffffffffffffffffffffffffffffffff168173ffffffffffffffffffffffffffffffffffffffff167f8be0079c531659141344cd1fd0a4f28419497f9722a3daafe3b4186f6b6457e060405160405180910390a35050565b600073ffffffffffffffffffffffffffffffffffffffff168273ffffffffffffffffffffffffffffffffffffffff1603613f9b57816040517f5b08ba18000000000000000000000000000000000000000000000000000000008152600401613f929190614c86565b60405180910390fd5b80600560008573ffffffffffffffffffffffffffffffffffffffff1673ffffffffffffffffffffffffffffffffffffffff16815260200190815260200160002060008473ffffffffffffffffffffffffffffffffffffffff1673ffffffffffffffffffffffffffffffffffffffff16815260200190815260200160002060006101000a81548160ff0219169083151502179055508173ffffffffffffffffffffffffffffffffffffffff168373ffffffffffffffffffffffffffffffffffffffff167f17307eab39ab6107e8899845ad3d59bd9653f200f220920489ca2b5937696c318360405161408c9190614aeb565b60405180910390a3505050565b60008373ffffffffffffffffffffffffffffffffffffffff163b111561424a578273ffffffffffffffffffffffffffffffffffffffff1663150b7a026140dd613ba9565b8685856040518563ffffffff1660e01b81526004016140ff9493929190615e64565b6020604051808303816000875af192505050801561413b57506040513d601f19601f820116820180604052508101906141389190615ec5565b60015b6141bf573d806000811461416b576040519150601f19603f3d011682016040523d82523d6000602084013e614170565b606091505b5060008151036141b757836040517f64a0ae920000000000000000000000000000000000000000000000000000000081526004016141ae9190614c86565b60405180910390fd5b805181602001fd5b63150b7a0260e01b7bffffffffffffffffffffffffffffffffffffffffffffffffffffffff1916817bffffffffffffffffffffffffffffffffffffffffffffffffffffffff19161461424857836040517f64a0ae9200000000000000000000000000000000000000000000000000000000815260040161423f9190614c86565b60405180910390fd5b505b50505050565b606060405180602001604052806000815250905090565b606061427282613ae4565b50600061427d614250565b9050600081511161429d57604051806020016040528060008152506142c8565b806142a784614755565b6040516020016142b8929190615deb565b6040516020818303038152906040525b915050919050565b600073ffffffffffffffffffffffffffffffffffffffff168273ffffffffffffffffffffffffffffffffffffffff16036143425760006040517f64a0ae920000000000000000000000000000000000000000000000000000000081526004016143399190614c86565b60405180910390fd5b600061435083836000613bc3565b9050600073ffffffffffffffffffffffffffffffffffffffff168173ffffffffffffffffffffffffffffffffffffffff16146143c45760006040517f73c6ac6e0000000000000000000000000000000000000000000000000000000081526004016143bb9190614c86565b60405180910390fd5b505050565b806006600084815260200190815260200160002090816143e99190615cdd565b507ff8e1a15aba9398e019f0b49df1a4fde98ee17ae345cb5f6b5e2c27f5033e8ce7826040516144199190614bd1565b60405180910390a15050565b60007f01ffc9a7000000000000000000000000000000000000000000000000000000007bffffffffffffffffffffffffffffffffffffffffffffffffffffffff1916827bffffffffffffffffffffffffffffffffffffffffffffffffffffffff1916149050919050565b60006002600083815260200190815260200160002060009054906101000a900473ffffffffffffffffffffffffffffffffffffffff169050919050565b80806145055750600073ffffffffffffffffffffffffffffffffffffffff168273ffffffffffffffffffffffffffffffffffffffff1614155b1561463957600061451584613ae4565b9050600073ffffffffffffffffffffffffffffffffffffffff168373ffffffffffffffffffffffffffffffffffffffff161415801561458057508273ffffffffffffffffffffffffffffffffffffffff168173ffffffffffffffffffffffffffffffffffffffff1614155b80156145935750614591818461330c565b155b156145d557826040517fa9fbf51f0000000000000000000000000000000000000000000000000000000081526004016145cc9190614c86565b60405180910390fd5b811561463757838573ffffffffffffffffffffffffffffffffffffffff168273ffffffffffffffffffffffffffffffffffffffff167f8c5be1e5ebec7d5bd14f71427d1e84f3dd0314c0f7b2291e5b200ac8c7c3b92560405160405180910390a45b505b836004600085815260200190815260200160002060006101000a81548173ffffffffffffffffffffffffffffffffffffffff021916908373ffffffffffffffffffffffffffffffffffffffff16021790555050505050565b61469c838383614823565b61475057600073ffffffffffffffffffffffffffffffffffffffff168373ffffffffffffffffffffffffffffffffffffffff160361471157806040517f7e2732890000000000000000000000000000000000000000000000000000000081526004016147089190614bd1565b60405180910390fd5b81816040517f177e802f000000000000000000000000000000000000000000000000000000008152600401614747929190615ef2565b60405180910390fd5b505050565b606060006001614764846148e4565b01905060008167ffffffffffffffff8111156147835761478261502e565b5b6040519080825280601f01601f1916602001820160405280156147b55781602001600182028036833780820191505090505b509050600082602001820190505b600115614818578080600190039150507f3031323334353637383961626364656600000000000000000000000000000000600a86061a8153600a858161480c5761480b615f1b565b5b049450600085036147c3575b819350505050919050565b60008073ffffffffffffffffffffffffffffffffffffffff168373ffffffffffffffffffffffffffffffffffffffff16141580156148db57508273ffffffffffffffffffffffffffffffffffffffff168473ffffffffffffffffffffffffffffffffffffffff16148061489c575061489b848461330c565b5b806148da57508273ffffffffffffffffffffffffffffffffffffffff166148c283613b6c565b73ffffffffffffffffffffffffffffffffffffffff16145b5b90509392505050565b600080600090507a184f03e93ff9f4daa797ed6e38ed64bf6a1f0100000000000000008310614942577a184f03e93ff9f4daa797ed6e38ed64bf6a1f010000000000000000838161493857614937615f1b565b5b0492506040810190505b6d04ee2d6d415b85acef8100000000831061497f576d04ee2d6d415b85acef8100000000838161497557614974615f1b565b5b0492506020810190505b662386f26fc1000083106149ae57662386f26fc1000083816149a4576149a3615f1b565b5b0492506010810190505b6305f5e10083106149d7576305f5e10083816149cd576149cc615f1b565b5b0492506008810190505b61271083106149fc5761271083816149f2576149f1615f1b565b5b0492506004810190505b60648310614a1f5760648381614a1557614a14615f1b565b5b0492506002810190505b600a8310614a2e576001810190505b80915050919050565b6000604051905090565b600080fd5b600080fd5b60007fffffffff0000000000000000000000000000000000000000000000000000000082169050919050565b614a8081614a4b565b8114614a8b57600080fd5b50565b600081359050614a9d81614a77565b92915050565b600060208284031215614ab957614ab8614a41565b5b6000614ac784828501614a8e565b91505092915050565b60008115159050919050565b614ae581614ad0565b82525050565b6000602082019050614b006000830184614adc565b92915050565b600081519050919050565b600082825260208201905092915050565b60005b83811015614b40578082015181840152602081019050614b25565b60008484015250505050565b6000601f19601f8301169050919050565b6000614b6882614b06565b614b728185614b11565b9350614b82818560208601614b22565b614b8b81614b4c565b840191505092915050565b60006020820190508181036000830152614bb08184614b5d565b905092915050565b6000819050919050565b614bcb81614bb8565b82525050565b6000602082019050614be66000830184614bc2565b92915050565b614bf581614bb8565b8114614c0057600080fd5b50565b600081359050614c1281614bec565b92915050565b600060208284031215614c2e57614c2d614a41565b5b6000614c3c84828501614c03565b91505092915050565b600073ffffffffffffffffffffffffffffffffffffffff82169050919050565b6000614c7082614c45565b9050919050565b614c8081614c65565b82525050565b6000602082019050614c9b6000830184614c77565b92915050565b614caa81614c65565b8114614cb557600080fd5b50565b600081359050614cc781614ca1565b92915050565b60008060408385031215614ce457614ce3614a41565b5b6000614cf285828601614cb8565b9250506020614d0385828601614c03565b9150509250929050565b600060208284031215614d2357614d22614a41565b5b6000614d3184828501614cb8565b91505092915050565b600081519050919050565b600082825260208201905092915050565b6000819050602082019050919050565b614d6f81614bb8565b82525050565b6000614d818383614d66565b60208301905092915050565b6000602082019050919050565b6000614da582614d3a565b614daf8185614d45565b9350614dba83614d56565b8060005b83811015614deb578151614dd28882614d75565b9750614ddd83614d8d565b925050600181019050614dbe565b5085935050505092915050565b60006020820190508181036000830152614e128184614d9a565b905092915050565b600080600060608486031215614e3357614e32614a41565b5b6000614e4186828701614cb8565b9350506020614e5286828701614cb8565b9250506040614e6386828701614c03565b9150509250925092565b600081519050919050565b600082825260208201905092915050565b6000819050602082019050919050565b614ea281614c65565b82525050565b6000614eb48383614e99565b60208301905092915050565b6000602082019050919050565b6000614ed882614e6d565b614ee28185614e78565b9350614eed83614e89565b8060005b83811015614f1e578151614f058882614ea8565b9750614f1083614ec0565b925050600181019050614ef1565b5085935050505092915050565b60006020820190508181036000830152614f458184614ecd565b905092915050565b6000614f5882614c45565b9050919050565b614f6881614f4d565b8114614f7357600080fd5b50565b600081359050614f8581614f5f565b92915050565b600060208284031215614fa157614fa0614a41565b5b6000614faf84828501614f76565b91505092915050565b614fc181614ad0565b8114614fcc57600080fd5b50565b600081359050614fde81614fb8565b92915050565b60008060408385031215614ffb57614ffa614a41565b5b600061500985828601614cb8565b925050602061501a85828601614fcf565b9150509250929050565b600080fd5b600080fd5b7f4e487b7100000000000000000000000000000000000000000000000000000000600052604160045260246000fd5b61506682614b4c565b810181811067ffffffffffffffff821117156150855761508461502e565b5b80604052505050565b6000615098614a37565b90506150a4828261505d565b919050565b600067ffffffffffffffff8211156150c4576150c361502e565b5b6150cd82614b4c565b9050602081019050919050565b82818337600083830152505050565b60006150fc6150f7846150a9565b61508e565b90508281526020810184848401111561511857615117615029565b5b6151238482856150da565b509392505050565b600082601f8301126151405761513f615024565b5b81356151508482602086016150e9565b91505092915050565b60008060008060008060c0878903121561517657615175614a41565b5b600087013567ffffffffffffffff81111561519457615193614a46565b5b6151a089828a0161512b565b96505060206151b189828a01614c03565b955050604087013567ffffffffffffffff8111156151d2576151d1614a46565b5b6151de89828a0161512b565b945050606087013567ffffffffffffffff8111156151ff576151fe614a46565b5b61520b89828a0161512b565b935050608087013567ffffffffffffffff81111561522c5761522b614a46565b5b61523889828a0161512b565b92505060a087013567ffffffffffffffff81111561525957615258614a46565b5b61526589828a0161512b565b9150509295509295509295565b600080600080600060a0868803121561528e5761528d614a41565b5b600061529c88828901614cb8565b955050602086013567ffffffffffffffff8111156152bd576152bc614a46565b5b6152c98882890161512b565b94505060406152da88828901614c03565b935050606086013567ffffffffffffffff8111156152fb576152fa614a46565b5b6153078882890161512b565b925050608086013567ffffffffffffffff81111561532857615327614a46565b5b6153348882890161512b565b9150509295509295909350565b61534a81614f4d565b82525050565b7f4e487b7100000000000000000000000000000000000000000000000000000000600052602160045260246000fd5b600581106153905761538f615350565b5b50565b60008190506153a18261537f565b919050565b60006153b182615393565b9050919050565b6153c1816153a6565b82525050565b600060c0820190506153dc6000830189614bc2565b6153e96020830188615341565b6153f66040830187615341565b6154036060830186614bc2565b61541060808301856153b8565b61541d60a0830184614adc565b979650505050505050565b600067ffffffffffffffff8211156154435761544261502e565b5b61544c82614b4c565b9050602081019050919050565b600061546c61546784615428565b61508e565b90508281526020810184848401111561548857615487615029565b5b6154938482856150da565b509392505050565b600082601f8301126154b0576154af615024565b5b81356154c0848260208601615459565b91505092915050565b600080600080608085870312156154e3576154e2614a41565b5b60006154f187828801614cb8565b945050602061550287828801614cb8565b935050604061551387828801614c03565b925050606085013567ffffffffffffffff81111561553457615533614a46565b5b6155408782880161549b565b91505092959194509250565b600061010082019050615562600083018b614c77565b8181036020830152615574818a614b5d565b90506155836040830189614bc2565b81810360608301526155958188614b5d565b905081810360808301526155a98187614b5d565b905081810360a08301526155bd8186614b5d565b905081810360c08301526155d18185614b5d565b90506155e060e0830184614adc565b9998505050505050505050565b600061012082019050615603600083018c614bc2565b615610602083018b614bc2565b8181036040830152615622818a614b5d565b90506156316060830189614bc2565b61563e6080830188614bc2565b81810360a08301526156508187614b5d565b905061565f60c0830186614adc565b61566c60e0830185615341565b61567a610100830184614adc565b9a9950505050505050505050565b600060c08201905061569d6000830189614bc2565b6156aa6020830188614c77565b81810360408301526156bc8187614b5d565b90506156cb6060830186614bc2565b81810360808301526156dd8185614b5d565b905081810360a08301526156f18184614b5d565b9050979650505050505050565b600080600080600060a0868803121561571a57615719614a41565b5b600061572888828901614c03565b955050602086013567ffffffffffffffff81111561574957615748614a46565b5b6157558882890161512b565b945050604061576688828901614c03565b935050606061577788828901614c03565b925050608086013567ffffffffffffffff81111561579857615797614a46565b5b6157a48882890161512b565b9150509295509295909350565b600080604083850312156157c8576157c7614a41565b5b60006157d685828601614cb8565b92505060206157e785828601614cb8565b9150509250929050565b6000806040838503121561580857615807614a41565b5b600061581685828601614c03565b925050602083013567ffffffffffffffff81111561583757615836614a46565b5b6158438582860161512b565b9150509250929050565b7f4e487b7100000000000000000000000000000000000000000000000000000000600052602260045260246000fd5b6000600282049050600182168061589457607f821691505b6020821081036158a7576158a661584d565b5b50919050565b60006060820190506158c26000830186614c77565b6158cf6020830185614bc2565b6158dc6040830184614c77565b949350505050565b7f796f7520617265206e6f7420636f6e74726163744f776e657200000000000000600082015250565b600061591a601983614b11565b9150615925826158e4565b602082019050919050565b600060208201905081810360008301526159498161590d565b9050919050565b7f596f7520617265206e6f7420636f6e74726163744f776e657200000000000000600082015250565b6000615986601983614b11565b915061599182615950565b602082019050919050565b600060208201905081810360008301526159b581615979565b9050919050565b7f476f767420617574686f72697479206e6f7420666f756e640000000000000000600082015250565b60006159f2601883614b11565b91506159fd826159bc565b602082019050919050565b60006020820190508181036000830152615a21816159e5565b9050919050565b7f4e487b7100000000000000000000000000000000000000000000000000000000600052603260045260246000fd5b7f4e487b7100000000000000000000000000000000000000000000000000000000600052601160045260246000fd5b6000615a9182614bb8565b9150615a9c83614bb8565b9250828203905081811115615ab457615ab3615a57565b5b92915050565b7f4e487b7100000000000000000000000000000000000000000000000000000000600052603160045260246000fd5b6000615af482614bb8565b91507fffffffffffffffffffffffffffffffffffffffffffffffffffffffffffffffff8203615b2657615b25615a57565b5b600182019050919050565b60008190508160005260206000209050919050565b60006020601f8301049050919050565b600082821b905092915050565b600060088302615b937fffffffffffffffffffffffffffffffffffffffffffffffffffffffffffffffff82615b56565b615b9d8683615b56565b95508019841693508086168417925050509392505050565b6000819050919050565b6000615bda615bd5615bd084614bb8565b615bb5565b614bb8565b9050919050565b6000819050919050565b615bf483615bbf565b615c08615c0082615be1565b848454615b63565b825550505050565b600090565b615c1d615c10565b615c28818484615beb565b505050565b5b81811015615c4c57615c41600082615c15565b600181019050615c2e565b5050565b601f821115615c9157615c6281615b31565b615c6b84615b46565b81016020851015615c7a578190505b615c8e615c8685615b46565b830182615c2d565b50505b505050565b600082821c905092915050565b6000615cb460001984600802615c96565b1980831691505092915050565b6000615ccd8383615ca3565b9150826002028217905092915050565b615ce682614b06565b67ffffffffffffffff811115615cff57615cfe61502e565b5b615d09825461587c565b615d14828285615c50565b600060209050601f831160018114615d475760008415615d35578287015190505b615d3f8582615cc1565b865550615da7565b601f198416615d5586615b31565b60005b82811015615d7d57848901518255600182019150602085019450602081019050615d58565b86831015615d9a5784890151615d96601f891682615ca3565b8355505b6001600288020188555050505b505050505050565b600081905092915050565b6000615dc582614b06565b615dcf8185615daf565b9350615ddf818560208601614b22565b80840191505092915050565b6000615df78285615dba565b9150615e038284615dba565b91508190509392505050565b600081519050919050565b600082825260208201905092915050565b6000615e3682615e0f565b615e408185615e1a565b9350615e50818560208601614b22565b615e5981614b4c565b840191505092915050565b6000608082019050615e796000830187614c77565b615e866020830186614c77565b615e936040830185614bc2565b8181036060830152615ea58184615e2b565b905095945050505050565b600081519050615ebf81614a77565b92915050565b600060208284031215615edb57615eda614a41565b5b6000615ee984828501615eb0565b91505092915050565b6000604082019050615f076000830185614c77565b615f146020830184614bc2565b9392505050565b7f4e487b7100000000000000000000000000000000000000000000000000000000600052601260045260246000fdfea26469706673582212207e923cd1a0124fd4b6da1818e37959588f42c053738589c052521e87d53cd11064736f6c63430008180033",
  "linkReferences": {},
  "deployedLinkReferences": {}
}